:03000000020006F5
:03005F0002000399
:0300030002006296
:100062001201209000051201605392DF4393DFD208
:10007200959000C81201609000C81201609000C8FB
:100082001201609000C81201609000C812016090D5
:1000920000C81201609000C81201609000C81201ED
:1000A200609000C81201609000C81201609000C800
:1000B2001201609000C81201609000C812016090A5
:1000C20000C81201609000C81201609000C81201BD
:1000D200609000C81201609000C81201609000C8D0
:1000E2001201609000C81201609000C8120160C243
:1000F200959000C81201609000C81201609000C87B
:100102001201609000C81201609000C81201609054
:1001120000C81201609000C812016002007175A14E
:100122005575A1AA53B9F875A10022AE82E583C321
:1001320013CE13CEC313CE13CEC313CE13CEC3131B
:10014200CE13CEC4CEC4540F6ECE540FCE6ECEFF9D
:10015200EE4F600905A11EBEFF011F80F322AE8291
:10016200AF83EE4F60159003E8C007C00612012D61
:10017200D006D0071EBEFF011F80E72243C6102211
:10018200C29FD29EC29DC2CDC2CC43878075080C4D
:10019200E4F509F50AF50B750D0AF50EF50FF510E4
:1001A200850882850983850AF0E50B12026EAC820E
:1001B2008C0C750D0AE4F50EF50FF5108508828595
:1001C2000983850AF0E50B1202F18582088583090D
:1001D20085F00AF50B74FB250C501574012508F502
:1001E20008E43509F509E4350AF50AE4350BF50B9F
:1001F200740F55894420F58943C9A0AF08C3E49F11
:10020200F58DD28ED299D29C2210980280FB8599CC
:10021200822285829910990280FB22AF8210990274
:1002220080FB8F992210980280FB8599822243C617
:100232002022C2C7D2C5D2C475C2FF2210C002801A
:10024200FB85C182228582C110C10280FB22AF825E
:1002520075A15575A1AAEF600543B101800353B1A1
:10026200FE75A10075FF00228582FF22F9E50D458A
:100272000E450F451060777800C308E51020E73B74
:10028200E50D25E0F50DE50E33F50EE50F33F50F1F
:10029200E51033F510E582950DE583950EE5F095B1
:1002A2000FE9951050D4C3E51013F510E50F13F5BF
:1002B2000FE50E13F50EE50D13F50DE582950DFC18
:1002C200E583950EFDE5F0950FFEE995104007F9DF
:1002D2008EF08D838C82C3E51013F510E50F13F5B4
:1002E2000FE50E13F50EE50D13F50DD8CEE922FB41
:1002F2007A20E4FCFDFEFFE5822582F582E5833368
:10030200F583E5F033F5F0EB33FB4017DAE9804291
:10031200E5822582F582E58333F583E5F033F5F056
:10032200EB33FBEC33FCED33FDEE33FEEF33FFEC4E
:10033200950DED950EEE950FEF95104013EC950D82
:10034200FCED950EFDEE950FFEEF9510FF43820139
:04035200DABEEB2202
:06003500E478FFF6D8FD9F
:100013007900E94400601B7A0090035A780075A0C8
:1000230000E493F2A308B8000205A0D9F4DAF2754C
:02003300A0FF2C
:10003B007800E84400600A790075A000E4F309D861
:10004B00FC7800E84400600C7900900000E4F0A319
:04005B00D8FCD9FAFA
:0D000600758110120356E5826003020003AD
:04035600758200228A
:00000001FF
